:1000000022C005CB04CB03CB02CB01CB0EC9FFCA68
:10001000FECAFDCAFCCAFBCAFACAF9CAF8CAF7CABC
:10002000F6CA29C9F4CAF3CAF2CAF1CAF0CAEFCAB9
:10003000EECAEDCA3E003E2E803E2E3E79001612DC
:100040003E793E8A800011241FBECFEFCDBFDFE393
:10005000DEBFE4E3F0E040E017C0B591A591359133
:100060002591059107FD0CC095918591EF01F92F20
:10007000E82F05900D92A217B307D9F7FE0104C02F
:100080001D92A217B307E1F7E534F40731F7B2DAAE
:0600900000C0F894FFCF50
:10009600A4E0B0E0E0E5F0E0A5C9009709F406C4E5
:1000A6008B839C83A12CB12C812C912C212CD12CBF
:1000B6005524539433E0C32E45E8642E56E8752E36
:1000C60062E0362E78E0472EEB81FC81A281B38177
:1000D6008D919C918816990608F0E4C17501EE0C85
:1000E600FF1CEB81FC8184819581FC01EE0DFF1DD7
:1000F600A281B3819C919E7109F05082EB81FC81B3
:10010600048115810E0D1F1DD8018C91843009F4D0
:10011600AAC038F48230E9F008F047C0813059F0BF
:10012600BAC1853809F4CDC0863809F41AC18730BA
:1001360009F0B1C167C1911193C03C92EB81FC817A
:1001460084819581FC01EE0DFF1D4182DD24D3944F
:10015600A2C1F8012181222331F142815381253048
:1001660038F0FA0181819281F8018483958315C064
:10017600F80184819581FA0141815281841795079E
:1001860061F04817590728F40197F801848395838D
:1001960004C00196F801848395832150F8012183D8
:1001A600DD24D39478C1C08276C1F80124813581DB
:1001B60082819381FC01418152812417350709F41C
:1001C6006AC1EB81FC81868197814217530718F536
:1001D60062817381241B350BDC01AA0DBB1D8C913A
:1001E60090E0FB01058002C0959587950A94E2F799
:1001F60099272817390708F44EC18481882309F402
:100206004AC1E7E0D801EC93EB81FC8182819381BE
:10021600FC0124811DC0FC01EA0DFB1D421B530B92
:10022600808190E04817590708F435C182818823F8
:1002360031F0B4018B819C81B3D581112CC1E4E0EE
:10024600D801EC93EB81FC8182819381FC012281B0
:10025600EB81FC8184819581FC01EE0DFF1D2183DC
:10026600DD24D39418C1F8012481358182819381DC
:10027600FC01818192818217930708F4FFC0EB810C
:10028600FC8146815781FA01EA0DFB1D821B930B07
:10029600208130E02817390708F0F0C082818823D2
:1002A60031F0B4018B819C817BD58111F4C0F801BA
:1002B6008181882309F483C081508183DD24D3940E
:1002C600EAC0AB81BC812D913C911197FD018281E1
:1002D6009381FC018085F9018383FD0124813581A9
:1002E600C9018E0D9F1D89839A83FC0164817581E6
:1002F60082819381FC012181328126173707D8F04C
:10030600EB81FC81A681B781AA0DBB1D1C91412FF3
:1003160050E0FD01818190E0019602C05595479518
:100326008A95E2F7261B370B141B812F90E0821764
:10033600930708F4AEC0A981BA817C92EB81FC8157
:1003460082819381FC012281EB81FC8184819581EC
:10035600FC01EE0DFF1D218322242394DD24D3947A
:100366009AC0F8016481758182819381FC012181A3
:1003760032812617370750F4F80181818823B1F1BD
:100386008150F80181832224239485C0EB81FC816E
:1003960086819781FC01EA0DFB1DA0814A2F50E062
:1003A600818190E0019602C0559547958A95E2F7BE
:1003B600261B370BA41BB0E0A217B30798F4D8018D
:1003C6006C92EB81FC8182819381FC012381EB811C
:1003D600FC8184819581FC01EE0DFF1D2183222481
:1003E600239459C0F8018181811104C0C08222245E
:1003F600239451C08150F801818322242394DD2463
:10040600D39449C0F8012481358182819381FC010E
:10041600818192818217930788F5281B390BEB811E
:10042600FC8186819781FC01EA0DFB1D808190E0AD
:10043600EB81FC8142815381FA01058002C09595CA
:1004460087950A94E2F7992728173907B8F0F80133
:10045600818181110DC05C92EB81FC818481958143
:10046600FC01EE0DFF1D0280F381E02DC08213C05A
:100476008150F8018183DD24D3940DC0D801CC923C
:10048600EB81FC8184819581FC01EE0DFF1D1182BB
:1004960002C022242394FFEF8F1A9F0A83E0A80E3E
:1004A600B11C12CE0190F081E02D808187FF29C01A
:1004B60040E050E020E030E0EB81FC81A281B38196
:1004C6008D919C9128173907B0F4EB81FC818481CA
:1004D6009581FC01E40FF51FA281B3818C9180FD0B
:1004E60005C09081977F11F081608C932F5F3F4FFD
:1004F6004A5F5F4FE1CF0190F081E02D80818F77D9
:100506008083D1100AC0AB81BC81ED91FC91211092
:1005160083C080818E7F808382C0EB81FC81828153
:100526009381FC018185882371F3AB81BC81ED91B8
:10053600FC911197808180688083FD01828193817F
:10054600FC0181858130F9F640E050E020E030E0A2
:1005560096E0D92EEB81FC81A281B3810D90BC91EE
:10056600A02D2A173B0778F6EB81FC8104811581C3
:10057600FA01EE0FFF1F4F01800E911EF4018081DC
:10058600982F977FB9F1853811F08330D1F5EB813B
:10059600FC81E680F780C701840F951FFC01B280BD
:1005A600BB2041F180E090E0C12C8A179B0700F543
:1005B60028173907D9F0D89EB001D99E700D11249D
:1005C600600F711FFB016081643011F0663871F4B1
:1005D600BC01660F771F680F791F6E0D7F1DFB012B
:1005E6006281B61203C0CD01CC24C3940196DDCF3F
:1005F600C11007C0F401A281B3818C918E7F8C93C8
:1006060006C0F401A281B3818C9181608C932F5F27
:100616003F4F4D5F5F4F9ECF808181608083809189
:10062600793E90917A3EAB81BC81ED91FC9121811E
:100636003281A90148535F4F4817590738F4821B86
:10064600930BAA24A394A3E0BA2E50C08217930753
:1006560010F080E02CC1821B930B0197893C910519
:10066600C0F3EFCF885C9109AB81BC81ED91FC9121
:100676002181328128533F4F2183328323812111E7
:10068600AAC02481222311F021502483AB81BC818E
:10069600ED91FC912581222311F021502583EB81D8
:1006A600FC81A281B381FD012681211124C0EB8149
:1006B600FC81A281B381FD012781211154C0EB8108
:1006C600FC8122813381F9012381222379F020E004
:1006D60030E0A0E0B0E0EB81FC8142815381FA0179
:1006E60040815181A417B50708F478C0893C91056B
:1006F60008F0B8CFAECFEB81FC8100811181F80103
:1007060024812111D4CFED90FC90119760E070E028
:1007160040E050E04E155F0509F1EB81FC818480D5
:100726009580860E971EF4012081233011F0283023
:1007360081F4F40124813581C280D380F601C18021
:10074600D2802C153D0528F42F5F3F4FF4012483FA
:1007560035834F5F5F4F6A5F7F4FDCCFFD01268198
:10076600F8012483A4CFEB81FC8100811181F8017B
:1007760025812111A4CFED90FC90119760E070E0E7
:1007860040E050E04E155F0509F1EB81FC81848065
:100796009580860E971EF4012081233011F02830B3
:1007A60081F4F40124813581C280D380F601C180B1
:1007B600D280C216D30628F421503109F4012483CD
:1007C60035834F5F5F4F6A5F7F4FDCCFFD01278127
:1007D600F801258374CF2150238371CFA901440FDB
:1007E600551FEB81FC8164817581FB01E40FF51FC8
:1007F6006081653809F056C06181662319F0615041
:10080600618350C0A082EB81FC8164817581FB010C
:10081600E40FF51F0280F381E02DB082EB81FC81AD
:1008260046815781FA01E20FF31FD280DD20D1F114
:1008360040E050E000E010E0EB81FC8162817381D2
:10084600FB01608171810617170760F5EB81FC815A
:1008560066817781FB01E40FF51F6281D6121DC008
:10086600BA01660F771FEB81FC8184809580860E26
:10087600971EF401E280F380F701F080F0FE0DC0D0
:10088600F401A082EB81FC81E480F580F701E60F9C
:10089600F71F0280F381E02DB0820F5F1F4F4D5F7F
:1008A6005F4FCACF11962D5F3F4F15CF8BE0249631
:0408B600E2E1B1C505
:1008BA00A4E0B0E0E2E6F4E094C58091893E8823A2
:1008CA0009F460C140917B3E50917C3E4B835C832E
:1008DA00E090813EF090823EA0E0B0E060E070E0FF
:1008EA0000E010E080E033243394F1E84F2E8824AE
:1008FA008A9499249394EB81FC8140815181FA0175
:10090A00208131810217130708F038C1F7012191BC
:10091A0031917F01EB81FC81C480D580F601E60F1D
:10092A00F71FE983FA8390819C71C92ED12CD69442
:10093A00C794D694C794C114D10421F0CA94CD287F
:10094A00D9F015C1EB81FC81428153814A0F5B1FAB
:10095A00FA0194819F70D92E9581D91610F49D19A8
:10096A0001C090E002C0369527959A95E2F7E98191
:10097A00FA8121833283FCC0EB81FC81C280D3805F
:10098A00CA0EDB1EF601058002C0369527950A9429
:10099A00E2F7E981FA8121833283A380B4802115A9
:1009AA00F2E03F0720F02F5F314091E005C0F401EB
:1009BA00E21BF30B9F0190E0FA015280F0E45F1210
:1009CA0005C036952795992319F00BC0992349F04C
:1009DA004FEFA416B40641F4E981FA8140828EE011
:1009EA0007C07724739401C0712C2A303105A0F412
:1009FA00EB81FC8124813581F901E60FF71F908193
:100A0A0097FF3082EB81FC8124813581F901E60F61
:100A1A00F71FA382B482ACC06501CD2CDD24C29439
:100A2A00EFE0CE229C2DA50144275F70652EA5011B
:100A3A00407F5527F4E056954795FA95E1F7FA2D48
:100A4A00FF70AF2E943030F09370D694C794D6943A
:100A5A00C7949C0D71103CC050E8550D523010F4EB
:100A6A0056E007C053E005C0951768F49F5F2F5CF6
:100A7A003109203D3105C0F706C0EFE06E1649F096
:100A8A0063942551310926313105B8F7FFE06F1219
:100A9A000EC0951720F49F5FF5E06F2E08C0EFE0B7
:100AAA006E2E05C04F3049F04F5F22503109233076
:100ABA003105C0F74F3009F06CC04FE0641689F178
:100ACA00639445E066C0992361F091502F5C310927
:100ADA00203D3105C0F705C0662041F06A942551D2
:100AEA00310926313105C0F761100DC0992321F073
:100AFA0091505AE0652E07C0612C05C0442341F08D
:100B0A0041502250310923303105C0F7411111C03B
:100B1A00662009F443C06A944AE023303105C0F6DE
:100B2A0008C0591335C02330310570F1FFE0AF2EEC
:100B3A004FE0943020F09350990F990F9D5F262D26
:100B4A0030E0322F2227E0E14E9FA0011124422BF0
:100B5A00532B4A29292F30E0322F22273295307F12
:100B6A00422B532BE981FA814383548301C0FFCF7F
:100B7A000F5F1F4F6B5F7F4F1696BDCE92E090932B
:100B8A00893E0EC083E00CC04FE02FE0A22ED1CFE9
:100B9A004FE02330310508F06CCFCBCF40E0C9CF0E
:060BAA002496E1E137C4CE
:100BB000CF93DF93BC01E0917B3EF0917C3E86E0D9
:100BC000869F9001879F300D1124C281D381C20F6F
:100BD000D31F898180932A06A281B381A20FB31FFC
:100BE0008C918093260695E0969FA001979F500DCB
:100BF0001124C481D581C40FD51F8B8180931A061F
:100C0000C481D581C40FD51F8C8180931B06A4811C
:100C1000B581A40FB51F8C9181FD9C938481958132
:100C2000DC01A40FB51F8C918C7171F4C281D3814A
:100C3000C20FD31FAC81A295AF70B0E0A050BA46EE
:100C40008C9180931C0603C08FE380931C06C281A5
:100C5000D381C20FD31F8A818B3120F48C5F8093A4
:100C6000050603C08FE180930506C281D381C20FC0
:100C7000D31F8D8180930106C281D381C20FD31F00
:100C80008B8182958F708093190682819381FC01FC
:100C9000E20FF31F83818F70806180930206809141
:100CA000180683608093180681E88093000681E02F
:0A0CB00080930806DF91CF910895AC
:100CBA000F931F93CF93DF9300D0CDB7DEB7809108
:100CCA00843E8F7049F00DC0F801E25DF14C8081DD
:100CDA0001D40F5F1F4F02C000E010E0033111057D
:100CEA0098F385E5F7D38091843EF4D319821A826A
:100CFA003DC089819A81D4D3192FECD3812FEAD3AD
:100D0A0089819A81F3D3192FE5D3812FE3D389817E
:100D1A009A81C6D38C0189819A81E8D3081B190B61
:100D2A00802FD8D3812FD6D389819A81C6D3192F00
:100D3A00D1D3812FCFD389819A81A3D388231CF45D
:100D4A0081E0C8D302C080E0C5D389819A81FC01C1
:100D5A00EE0FFF1F8E0F9F1FFC01E35AF14C80819B
:100D6A00B9D389819A81019689839A8389819A81E3
:100D7A00039708F4BECF8091853EACD38091843E20
:100D8A0091E0980F9093843EA5D38AEAA3D30F905B
:0C0D9A000F90DF91CF911F910F910895F1
:100DA600CF92DF92FF920F931F93CF93DF93EC01C5
:100DB600AE81BF81FB01EE0FFF1FE60FF71F8F010C
:100DC6000A0F1B1FF801F2804C815D81C6E0C69FA9
:100DD6009001C79F300D1124EA01C20FD31F2A814B
:100DE6003B81F901218132810C80DD81C02D2C1BD4
:100DF6003D0BE801E8812E1B3109EC01EA81FB81FC
:100E0600008111816D01FA0140E050E04017510761
:100E160049F146175707F9F0E6018A81F8121BC017
:100E260080818558823000F1A481B58182819381C9
:100E3600EC0189819A81A817B90768F48A1B9B0B74
:100E4600E601A881B0E0A817B90728F48A1B9B0B16
:100E56002817390748F04F5F5F4FD3E0CD0ED11CFE
:100E66003696D4CF80E001C081E0DF91CF911F910B
:0A0E76000F91FF90DF90CF900895D8
:100E800061157105B1F10097A1F12091893E2223EE
:100E900091F1243091F180937B3E90937C3E60935E
:100EA0007D3E70937E3E20EC20931806DC01ED9190
:100EB000FC912281203441F4209118062062209375
:100EC000180610921E061DC0203841F42091180605
:100ED00028622093180610921E0613C0213879F458
:100EE0002091180628622093180626E820931E06F3
:100EF00008C08BE0089583E0089581E0089582E0C2
:100F0000089510920006DC01ED91FC9184818031FE
:100F100008F080E18093030681E080930B068093C4
:100F20000A0610927F3E1092803EC0D081110AC006
:100F300084E08093893E80917F3E9091803E38DEB0
:0C0F400080E0089582E08093893E0895CF
:100F4C00CF93DF93FC01892BC9F1C081D1818881BA
:100F5C00998186179707A0F19A810480F581E02D7D
:100F6C00903471F485E0869FE001879FD00D1124A9
:100F7C00CE0FDF1F84E392E08B839C8380E012C052
:100F8C009058923070F485E0869FE001879FD00DD9
:100F9C001124CE0FDF1F87E695E08B839C8380E0C6
:100FAC0001C082E095E0969F9001979F300D11242F
:100FBC00E20FF31F90819260908303C08BE001C01D
:080FCC0082E0DF91CF9108954E
:100FD400CF93DF93EC01892B69F1E881F98160817A
:100FE400718140E050E020E030E090E026173707C0
:100FF40069F0EA81FB81E40FF51FA08181818A2BCE
:10100400982B2F5F3F4F4A5F5F4FF0CF9923A1F09A
:101014008091893E811107C09093220681E08093DC
:10102400893E80E00AC080912206982B9093220684
:1010340080E003C08BE001C082E0DF91CF9108958E
:1010440080E090E021D280788093833E882321F051
:1010540081B18D7F81B905C0811103C081B18260E6
:1010640081B981E090E010D280788093833E882318
:1010740021F081B18B7F81B905C0811103C081B199
:10108400846081B982E090E0FFD180788093833ED0
:10109400882321F085B18E7F85B90895811103C01D
:0810A40085B1816085B9089552
:1010AC00CF93DF9380917F3E9091803EC0917B3EA9
:1010BC00D0917C3EE881F9814081518125E0289FC7
:1010CC00B001299F700D112420E030E084179507A2
:1010DC0098F4EC81FD81E20FF31FE60FF71FE0811E
:1010EC002B5F3F4FE0FD02C00196F0CF80937F3E17
:1010FC009093803E80E005C010927F3E1092803E1F
:08110C0081E0DF91CF9108950D
:101114008091883E813049F46FEE7AE08EE69EE35A
:10112400ADDE811102C01092883E8091873E8130ED
:10113400F1F41092873EBFDB811108C086E69EE37E
:10114400A8D7882329F081E043D202C080E040D2AE
:10115400E091663EF091673E8081882324F481E02B
:101164008093883E03C081E08093863EA4DD089589
:10117400CF93DF938EE69EE32BDF86E19EE304D2DA
:10118400C0E0D0E009C0BE018EE69EE3B7D0BE0148
:101194008EE69EE3D9DE2196C330D105A0F3C0E0EC
:1011A400D0E00EC0AE01440F551F440F551F4C0F25
:1011B4005D1F495F514C6C2F86E69EE3C0D021969B
:0E11C400C330D10578F380E0DF91CF9108951C
:1011D20010920006409110065091110680917F3EB8
:1011E2009091803E9C01220F331FE091813EF0914D
:1011F200823EE20FF31F40835183019680937F3E2C
:101202009093803E52DF811109C084E08093893E31
:1012120080917F3E9091803ECADC0895E0917D3EB0
:08122200F0917E3E099508954C
:10122A001F920F920FB60F9211242F933F934F9351
:10123A005F936F937F938F939F93AF93BF93EF9334
:10124A00FF93FFD082E080934301FF91EF91BF911A
:10125A00AF919F918F917F916F915F914F913F9144
:0C126A002F910F900FBE0F901F90189551
:101276001F920F920FB60F9211242F933F934F9305
:101286005F936F937F938F939F93AF93BF93EF93E8
:10129600FF939CDFFF91EF91BF91AF919F918F914B
:1012A6007F916F915F914F913F912F910F900FBE5C
:0612B6000F901F90189537
:1012BC007DD081B1826081B980B1826080B981B109
:1012CC00846081B980B1846080B985B1816085B951
:1012DC0084B1816084B984B18D7F84B9E1E3F4E099
:1012EC008081877F808356D10CD1BAD080D187D1B1
:0412FC0084D10895FC
:10130000CF93DF930097B9F0DC01ED91FC91208140
:1013100031812617370788F045E0469F9001479FA7
:10132000300D1124EC01EC81FD81E20FF31F81E00F
:10133000808380E003C08BE001C082E0DF91CF9129
:0213400008950E
:10134200CF93DF930097B9F041155105A1F026E044
:10135200629FB0011124EC01EC81FD81E60FF71FC1
:1013620021E020838C819D81FC01E60FF71F4283DF
:0E137200538380E001C08BE0DF91CF9108959E
:10138000E5E1F4E08081877F80838081887F8460CD
:101390008083E4E1F4E08081877F80838081887F9F
:1013A00084608083E6E1F4E08081877F80838081B0
:0813B000887F846080830895AA
:1013B80080E008C0E82FF0E0E05FFB4F9081986084
:1013C80090838F5F8830B0F380E008C0E82FF0E0AA
:1013D800E05DFB4F9081986090838F5F8830B0F319
:0213E800089566
:1013EA002F923F924F925F926F927F928F929F922B
:1013FA00AF92BF92CF92DF92EF92FF920F931F9319
:10140A00CF93DF93CDB7DEB7CA1BDB0BCDBFDEBFF1
:02141A00099433
:10141C002A88398848885F846E847D848C849B8478
:10142C00AA84B984C884DF80EE80FD800C811B8186
:10143C00AA81B981CE0FD11DCDBFDEBFED010895BC
:10144C008091063E8F5F8093063E843140F010926F
:10145C00063E81E08093883E84E190E05ED0089562
:10146C0084B1877F84B9E3E3F4E08081877F808354
:10147C0085B18B7F85B984B1846084B96DD00895B2
:10148C00E0916A3EF0916B3E9C01220F331F820F5C
:0E149C00931F880F991FE80FF91F8081089594
:1014AA00FC01EE0FFF1FEE0FFF1F8E0F9F1FFC01A7
:0A14BA00E95FF14C818192810895F1
:1014C400FC01EE0FFF1FEE0FFF1F8E0F9F1FFC018D
:0A14D400E95FF14C838194810895D3
:1014DE00CF93C82F72D08823E9F38C2F61D045D0DB
:0814EE008111FDCFCF9108959B
:1014F600FC01EE0FFF1FE80FF91FEE0FFF1FE45E62
:08150600F14C848195810895E8
:10150E00809141018111FCCFE0E4F1E081E880831C
:08151E0082E0828380E0089561
:101526002091793E30917A3E820F931F8093793EC7
:0615360090937A3E089537
:10153C007894EADD8091863E813019F41092863ED3
:04154C007BDD0895A6
:101550009091410192FDFCCF90E080934A019093DD
:041560004B0108959E
:10156400E0E0F8E083E298E08087918780EC86836E
:0415740080E0089576
:1015780080910408829586958695837091E08927E5
:0415880081700895D1
:10158C00009731F08093813E9093823E80E00895E5
:04159C008BE0089543
:0E15A00040E068ED81E690E01ED080E0089506
:0E15AE009091040895FFFCCF809302080895E9
:0C15BC0080E2C8DFDFDED8DD25D0089516
:0C15C8008091040885FB882780F90895B5
:0A15D4008F5F8093853E6FDB089562
:0815DE0081E08093873E08952F
:0815E600FC0164BF408308957D
:0615EE0066DEE5DF089552
:0615F400FCDFA2DFFECFC8
:0615FA00789480E00895E2
:061600003F1C0B05030175
:0416060080E00895E3
:04160A0080E00895DF
:02160E00F8C41E
:0216100008953B
:101612005FB400864A03EB00000000000000AA55F8
:03162200016EA0B6
:10162500000114030105000214030105000414035D
:021635000105AD
:0A163700030004000500140514016F
:0916410014010014010014010061
:08164A00003E533E1C3E5D3ED4
:06165200743E413E073E1C
:051658000300803000DA
:00000001FF
